{
  "_format": "hh-sol-artifact-1",
  "contractName": "DataDaoGovernance",
  "sourceName": "contracts/DataDaoGovernance.sol",
  "abi": [
    {
      "inputs": [],
      "stateMutability": "nonpayable",
      "type": "constructor"
    },
    {
      "anonymous": false,
      "inputs": [
        {
          "indexed": false,
          "internalType": "address",
          "name": "previousAdmin",
          "type": "address"
        },
        {
          "indexed": false,
          "internalType": "address",
          "name": "newAdmin",
          "type": "address"
        }
      ],
      "name": "AdminChanged",
      "type": "event"
    },
    {
      "anonymous": false,
      "inputs": [
        {
          "indexed": true,
          "internalType": "address",
          "name": "owner",
          "type": "address"
        },
        {
          "indexed": true,
          "internalType": "address",
          "name": "spender",
          "type": "address"
        },
        {
          "indexed": false,
          "internalType": "uint256",
          "name": "value",
          "type": "uint256"
        }
      ],
      "name": "Approval",
      "type": "event"
    },
    {
      "anonymous": false,
      "inputs": [
        {
          "indexed": true,
          "internalType": "address",
          "name": "beacon",
          "type": "address"
        }
      ],
      "name": "BeaconUpgraded",
      "type": "event"
    },
    {
      "anonymous": false,
      "inputs": [
        {
          "indexed": true,
          "internalType": "address",
          "name": "delegator",
          "type": "address"
        },
        {
          "indexed": true,
          "internalType": "address",
          "name": "fromDelegate",
          "type": "address"
        },
        {
          "indexed": true,
          "internalType": "address",
          "name": "toDelegate",
          "type": "address"
        }
      ],
      "name": "DelegateChanged",
      "type": "event"
    },
    {
      "anonymous": false,
      "inputs": [
        {
          "indexed": true,
          "internalType": "address",
          "name": "delegate",
          "type": "address"
        },
        {
          "indexed": false,
          "internalType": "uint256",
          "name": "previousBalance",
          "type": "uint256"
        },
        {
          "indexed": false,
          "internalType": "uint256",
          "name": "newBalance",
          "type": "uint256"
        }
      ],
      "name": "DelegateVotesChanged",
      "type": "event"
    },
    {
      "anonymous": false,
      "inputs": [
        {
          "indexed": false,
          "internalType": "uint8",
          "name": "version",
          "type": "uint8"
        }
      ],
      "name": "Initialized",
      "type": "event"
    },
    {
      "anonymous": false,
      "inputs": [
        {
          "indexed": true,
          "internalType": "bytes32",
          "name": "role",
          "type": "bytes32"
        },
        {
          "indexed": true,
          "internalType": "bytes32",
          "name": "previousAdminRole",
          "type": "bytes32"
        },
        {
          "indexed": true,
          "internalType": "bytes32",
          "name": "newAdminRole",
          "type": "bytes32"
        }
      ],
      "name": "RoleAdminChanged",
      "type": "event"
    },
    {
      "anonymous": false,
      "inputs": [
        {
          "indexed": true,
          "internalType": "bytes32",
          "name": "role",
          "type": "bytes32"
        },
        {
          "indexed": true,
          "internalType": "address",
          "name": "account",
          "type": "address"
        },
        {
          "indexed": true,
          "internalType": "address",
          "name": "sender",
          "type": "address"
        }
      ],
      "name": "RoleGranted",
      "type": "event"
    },
    {
      "anonymous": false,
      "inputs": [
        {
          "indexed": true,
          "internalType": "bytes32",
          "name": "role",
          "type": "bytes32"
        },
        {
          "indexed": true,
          "internalType": "address",
          "name": "account",
          "type": "address"
        },
        {
          "indexed": true,
          "internalType": "address",
          "name": "sender",
          "type": "address"
        }
      ],
      "name": "RoleRevoked",
      "type": "event"
    },
    {
      "anonymous": false,
      "inputs": [
        {
          "indexed": true,
          "internalType": "address",
          "name": "from",
          "type": "address"
        },
        {
          "indexed": true,
          "internalType": "address",
          "name": "to",
          "type": "address"
        },
        {
          "indexed": false,
          "internalType": "uint256",
          "name": "value",
          "type": "uint256"
        }
      ],
      "name": "Transfer",
      "type": "event"
    },
    {
      "anonymous": false,
      "inputs": [
        {
          "indexed": true,
          "internalType": "address",
          "name": "implementation",
          "type": "address"
        }
      ],
      "name": "Upgraded",
      "type": "event"
    },
    {
      "inputs": [],
      "name": "DEFAULT_ADMIN_ROLE",
      "outputs": [
        {
          "internalType": "bytes32",
          "name": "",
          "type": "bytes32"
        }
      ],
      "stateMutability": "view",
      "type": "function"
    },
    {
      "inputs": [],
      "name": "DOMAIN_SEPARATOR",
      "outputs": [
        {
          "internalType": "bytes32",
          "name": "",
          "type": "bytes32"
        }
      ],
      "stateMutability": "view",
      "type": "function"
    },
    {
      "inputs": [],
      "name": "MINTER_ROLE",
      "outputs": [
        {
          "internalType": "bytes32",
          "name": "",
          "type": "bytes32"
        }
      ],
      "stateMutability": "view",
      "type": "function"
    },
    {
      "inputs": [],
      "name": "UPGRADER_ROLE",
      "outputs": [
        {
          "internalType": "bytes32",
          "name": "",
          "type": "bytes32"
        }
      ],
      "stateMutability": "view",
      "type": "function"
    },
    {
      "inputs": [
        {
          "internalType": "address",
          "name": "owner",
          "type": "address"
        },
        {
          "internalType": "address",
          "name": "spender",
          "type": "address"
        }
      ],
      "name": "allowance",
      "outputs": [
        {
          "internalType": "uint256",
          "name": "",
          "type": "uint256"
        }
      ],
      "stateMutability": "view",
      "type": "function"
    },
    {
      "inputs": [
        {
          "internalType": "address",
          "name": "spender",
          "type": "address"
        },
        {
          "internalType": "uint256",
          "name": "amount",
          "type": "uint256"
        }
      ],
      "name": "approve",
      "outputs": [
        {
          "internalType": "bool",
          "name": "",
          "type": "bool"
        }
      ],
      "stateMutability": "nonpayable",
      "type": "function"
    },
    {
      "inputs": [
        {
          "internalType": "address",
          "name": "account",
          "type": "address"
        }
      ],
      "name": "balanceOf",
      "outputs": [
        {
          "internalType": "uint256",
          "name": "",
          "type": "uint256"
        }
      ],
      "stateMutability": "view",
      "type": "function"
    },
    {
      "inputs": [
        {
          "internalType": "address",
          "name": "account",
          "type": "address"
        },
        {
          "internalType": "uint32",
          "name": "pos",
          "type": "uint32"
        }
      ],
      "name": "checkpoints",
      "outputs": [
        {
          "components": [
            {
              "internalType": "uint32",
              "name": "fromBlock",
              "type": "uint32"
            },
            {
              "internalType": "uint224",
              "name": "votes",
              "type": "uint224"
            }
          ],
          "internalType": "struct ERC20VotesUpgradeable.Checkpoint",
          "name": "",
          "type": "tuple"
        }
      ],
      "stateMutability": "view",
      "type": "function"
    },
    {
      "inputs": [],
      "name": "decimals",
      "outputs": [
        {
          "internalType": "uint8",
          "name": "",
          "type": "uint8"
        }
      ],
      "stateMutability": "view",
      "type": "function"
    },
    {
      "inputs": [
        {
          "internalType": "address",
          "name": "spender",
          "type": "address"
        },
        {
          "internalType": "uint256",
          "name": "subtractedValue",
          "type": "uint256"
        }
      ],
      "name": "decreaseAllowance",
      "outputs": [
        {
          "internalType": "bool",
          "name": "",
          "type": "bool"
        }
      ],
      "stateMutability": "nonpayable",
      "type": "function"
    },
    {
      "inputs": [
        {
          "internalType": "address",
          "name": "delegatee",
          "type": "address"
        }
      ],
      "name": "delegate",
      "outputs": [],
      "stateMutability": "nonpayable",
      "type": "function"
    },
    {
      "inputs": [
        {
          "internalType": "address",
          "name": "delegatee",
          "type": "address"
        },
        {
          "internalType": "uint256",
          "name": "nonce",
          "type": "uint256"
        },
        {
          "internalType": "uint256",
          "name": "expiry",
          "type": "uint256"
        },
        {
          "internalType": "uint8",
          "name": "v",
          "type": "uint8"
        },
        {
          "internalType": "bytes32",
          "name": "r",
          "type": "bytes32"
        },
        {
          "internalType": "bytes32",
          "name": "s",
          "type": "bytes32"
        }
      ],
      "name": "delegateBySig",
      "outputs": [],
      "stateMutability": "nonpayable",
      "type": "function"
    },
    {
      "inputs": [
        {
          "internalType": "address",
          "name": "account",
          "type": "address"
        }
      ],
      "name": "delegates",
      "outputs": [
        {
          "internalType": "address",
          "name": "",
          "type": "address"
        }
      ],
      "stateMutability": "view",
      "type": "function"
    },
    {
      "inputs": [
        {
          "internalType": "uint256",
          "name": "blockNumber",
          "type": "uint256"
        }
      ],
      "name": "getPastTotalSupply",
      "outputs": [
        {
          "internalType": "uint256",
          "name": "",
          "type": "uint256"
        }
      ],
      "stateMutability": "view",
      "type": "function"
    },
    {
      "inputs": [
        {
          "internalType": "address",
          "name": "account",
          "type": "address"
        },
        {
          "internalType": "uint256",
          "name": "blockNumber",
          "type": "uint256"
        }
      ],
      "name": "getPastVotes",
      "outputs": [
        {
          "internalType": "uint256",
          "name": "",
          "type": "uint256"
        }
      ],
      "stateMutability": "view",
      "type": "function"
    },
    {
      "inputs": [
        {
          "internalType": "bytes32",
          "name": "role",
          "type": "bytes32"
        }
      ],
      "name": "getRoleAdmin",
      "outputs": [
        {
          "internalType": "bytes32",
          "name": "",
          "type": "bytes32"
        }
      ],
      "stateMutability": "view",
      "type": "function"
    },
    {
      "inputs": [
        {
          "internalType": "address",
          "name": "account",
          "type": "address"
        }
      ],
      "name": "getVotes",
      "outputs": [
        {
          "internalType": "uint256",
          "name": "",
          "type": "uint256"
        }
      ],
      "stateMutability": "view",
      "type": "function"
    },
    {
      "inputs": [
        {
          "internalType": "bytes32",
          "name": "role",
          "type": "bytes32"
        },
        {
          "internalType": "address",
          "name": "account",
          "type": "address"
        }
      ],
      "name": "grantRole",
      "outputs": [],
      "stateMutability": "nonpayable",
      "type": "function"
    },
    {
      "inputs": [
        {
          "internalType": "bytes32",
          "name": "role",
          "type": "bytes32"
        },
        {
          "internalType": "address",
          "name": "account",
          "type": "address"
        }
      ],
      "name": "hasRole",
      "outputs": [
        {
          "internalType": "bool",
          "name": "",
          "type": "bool"
        }
      ],
      "stateMutability": "view",
      "type": "function"
    },
    {
      "inputs": [
        {
          "internalType": "address",
          "name": "spender",
          "type": "address"
        },
        {
          "internalType": "uint256",
          "name": "addedValue",
          "type": "uint256"
        }
      ],
      "name": "increaseAllowance",
      "outputs": [
        {
          "internalType": "bool",
          "name": "",
          "type": "bool"
        }
      ],
      "stateMutability": "nonpayable",
      "type": "function"
    },
    {
      "inputs": [
        {
          "internalType": "string",
          "name": "name",
          "type": "string"
        },
        {
          "internalType": "string",
          "name": "symbol",
          "type": "string"
        },
        {
          "internalType": "uint256",
          "name": "initialSupply",
          "type": "uint256"
        }
      ],
      "name": "initialize",
      "outputs": [],
      "stateMutability": "nonpayable",
      "type": "function"
    },
    {
      "inputs": [
        {
          "internalType": "address",
          "name": "to",
          "type": "address"
        },
        {
          "internalType": "uint256",
          "name": "amount",
          "type": "uint256"
        }
      ],
      "name": "mint",
      "outputs": [],
      "stateMutability": "nonpayable",
      "type": "function"
    },
    {
      "inputs": [],
      "name": "name",
      "outputs": [
        {
          "internalType": "string",
          "name": "",
          "type": "string"
        }
      ],
      "stateMutability": "view",
      "type": "function"
    },
    {
      "inputs": [
        {
          "internalType": "address",
          "name": "owner",
          "type": "address"
        }
      ],
      "name": "nonces",
      "outputs": [
        {
          "internalType": "uint256",
          "name": "",
          "type": "uint256"
        }
      ],
      "stateMutability": "view",
      "type": "function"
    },
    {
      "inputs": [
        {
          "internalType": "address",
          "name": "account",
          "type": "address"
        }
      ],
      "name": "numCheckpoints",
      "outputs": [
        {
          "internalType": "uint32",
          "name": "",
          "type": "uint32"
        }
      ],
      "stateMutability": "view",
      "type": "function"
    },
    {
      "inputs": [
        {
          "internalType": "address",
          "name": "owner",
          "type": "address"
        },
        {
          "internalType": "address",
          "name": "spender",
          "type": "address"
        },
        {
          "internalType": "uint256",
          "name": "value",
          "type": "uint256"
        },
        {
          "internalType": "uint256",
          "name": "deadline",
          "type": "uint256"
        },
        {
          "internalType": "uint8",
          "name": "v",
          "type": "uint8"
        },
        {
          "internalType": "bytes32",
          "name": "r",
          "type": "bytes32"
        },
        {
          "internalType": "bytes32",
          "name": "s",
          "type": "bytes32"
        }
      ],
      "name": "permit",
      "outputs": [],
      "stateMutability": "nonpayable",
      "type": "function"
    },
    {
      "inputs": [],
      "name": "proxiableUUID",
      "outputs": [
        {
          "internalType": "bytes32",
          "name": "",
          "type": "bytes32"
        }
      ],
      "stateMutability": "view",
      "type": "function"
    },
    {
      "inputs": [
        {
          "internalType": "bytes32",
          "name": "role",
          "type": "bytes32"
        },
        {
          "internalType": "address",
          "name": "account",
          "type": "address"
        }
      ],
      "name": "renounceRole",
      "outputs": [],
      "stateMutability": "nonpayable",
      "type": "function"
    },
    {
      "inputs": [
        {
          "internalType": "bytes32",
          "name": "role",
          "type": "bytes32"
        },
        {
          "internalType": "address",
          "name": "account",
          "type": "address"
        }
      ],
      "name": "revokeRole",
      "outputs": [],
      "stateMutability": "nonpayable",
      "type": "function"
    },
    {
      "inputs": [
        {
          "internalType": "bytes4",
          "name": "interfaceId",
          "type": "bytes4"
        }
      ],
      "name": "supportsInterface",
      "outputs": [
        {
          "internalType": "bool",
          "name": "",
          "type": "bool"
        }
      ],
      "stateMutability": "view",
      "type": "function"
    },
    {
      "inputs": [],
      "name": "symbol",
      "outputs": [
        {
          "internalType": "string",
          "name": "",
          "type": "string"
        }
      ],
      "stateMutability": "view",
      "type": "function"
    },
    {
      "inputs": [],
      "name": "totalSupply",
      "outputs": [
        {
          "internalType": "uint256",
          "name": "",
          "type": "uint256"
        }
      ],
      "stateMutability": "view",
      "type": "function"
    },
    {
      "inputs": [
        {
          "internalType": "address",
          "name": "to",
          "type": "address"
        },
        {
          "internalType": "uint256",
          "name": "amount",
          "type": "uint256"
        }
      ],
      "name": "transfer",
      "outputs": [
        {
          "internalType": "bool",
          "name": "",
          "type": "bool"
        }
      ],
      "stateMutability": "nonpayable",
      "type": "function"
    },
    {
      "inputs": [
        {
          "internalType": "address",
          "name": "from",
          "type": "address"
        },
        {
          "internalType": "address",
          "name": "to",
          "type": "address"
        },
        {
          "internalType": "uint256",
          "name": "amount",
          "type": "uint256"
        }
      ],
      "name": "transferFrom",
      "outputs": [
        {
          "internalType": "bool",
          "name": "",
          "type": "bool"
        }
      ],
      "stateMutability": "nonpayable",
      "type": "function"
    },
    {
      "inputs": [
        {
          "internalType": "address",
          "name": "newImplementation",
          "type": "address"
        }
      ],
      "name": "upgradeTo",
      "outputs": [],
      "stateMutability": "nonpayable",
      "type": "function"
    },
    {
      "inputs": [
        {
          "internalType": "address",
          "name": "newImplementation",
          "type": "address"
        },
        {
          "internalType": "bytes",
          "name": "data",
          "type": "bytes"
        }
      ],
      "name": "upgradeToAndCall",
      "outputs": [],
      "stateMutability": "payable",
      "type": "function"
    }
  ],
  "bytecode": "0x60a0604052306080523480156200001557600080fd5b506200002062000026565b620000e8565b600054610100900460ff1615620000935760405162461bcd60e51b815260206004820152602760248201527f496e697469616c697a61626c653a20636f6e747261637420697320696e697469604482015266616c697a696e6760c81b606482015260840160405180910390fd5b60005460ff9081161015620000e6576000805460ff191660ff9081179091556040519081527f7f26b83ff96e1f2b6a682f133852f6798a09c465da95921460cefb38474024989060200160405180910390a15b565b6080516137fe62000120600039600081816109f701528181610a7c01528181610c5901528181610cde0152610dc401526137fe6000f3fe60806040526004361061024f5760003560e01c80636fcfff4511610138578063a9059cbb116100b0578063d53913931161007f578063dd62ed3e11610064578063dd62ed3e146106f6578063f1127ed81461073c578063f72c0d8b1461078657600080fd5b8063d5391393146106a2578063d547741f146106d657600080fd5b8063a9059cbb14610622578063b119490e14610642578063c3cda52014610662578063d505accf1461068257600080fd5b806391d14854116101075780639ab24eb0116100ec5780639ab24eb0146105cd578063a217fddf146105ed578063a457c2d71461060257600080fd5b806391d148541461057257806395d89b41146105b857600080fd5b80636fcfff45146104c757806370a08231146104fc5780637ecebe00146105325780638e539e8c1461055257600080fd5b806336568abe116101cb57806340c10f191161019a57806352d1902d1161017f57806352d1902d14610440578063587cde1e146104555780635c19a95c146104a757600080fd5b806340c10f191461040d5780634f1ef2861461042d57600080fd5b806336568abe1461038d5780633659cfe6146103ad57806339509351146103cd5780633a46b1a8146103ed57600080fd5b806323b872dd116102225780632f2ff15d116102075780632f2ff15d1461033a578063313ce5671461035c5780633644e5151461037857600080fd5b806323b872dd146102ea578063248a9ca31461030a57600080fd5b806301ffc9a71461025457806306fdde0314610289578063095ea7b3146102ab57806318160ddd146102cb575b600080fd5b34801561026057600080fd5b5061027461026f366004612fb5565b6107ba565b60405190151581526020015b60405180910390f35b34801561029557600080fd5b5061029e610853565b604051610280919061301b565b3480156102b757600080fd5b506102746102c636600461306a565b6108e5565b3480156102d757600080fd5b506067545b604051908152602001610280565b3480156102f657600080fd5b50610274610305366004613094565b6108fd565b34801561031657600080fd5b506102dc6103253660046130d0565b60009081526097602052604090206001015490565b34801561034657600080fd5b5061035a6103553660046130e9565b610923565b005b34801561036857600080fd5b5060405160128152602001610280565b34801561038457600080fd5b506102dc61094d565b34801561039957600080fd5b5061035a6103a83660046130e9565b61095c565b3480156103b957600080fd5b5061035a6103c8366004613115565b6109ed565b3480156103d957600080fd5b506102746103e836600461306a565b610b68565b3480156103f957600080fd5b506102dc61040836600461306a565b610ba7565b34801561041957600080fd5b5061035a61042836600461306a565b610c1b565b61035a61043b3660046131bc565b610c4f565b34801561044c57600080fd5b506102dc610db7565b34801561046157600080fd5b5061048f610470366004613115565b6001600160a01b03908116600090815261013060205260409020541690565b6040516001600160a01b039091168152602001610280565b3480156104b357600080fd5b5061035a6104c2366004613115565b610e7c565b3480156104d357600080fd5b506104e76104e2366004613115565b610e86565b60405163ffffffff9091168152602001610280565b34801561050857600080fd5b506102dc610517366004613115565b6001600160a01b031660009081526065602052604090205490565b34801561053e57600080fd5b506102dc61054d366004613115565b610ea9565b34801561055e57600080fd5b506102dc61056d3660046130d0565b610ec7565b34801561057e57600080fd5b5061027461058d3660046130e9565b60009182526097602090815260408084206001600160a01b0393909316845291905290205460ff1690565b3480156105c457600080fd5b5061029e610f24565b3480156105d957600080fd5b506102dc6105e8366004613115565b610f33565b3480156105f957600080fd5b506102dc600081565b34801561060e57600080fd5b5061027461061d36600461306a565b610fbc565b34801561062e57600080fd5b5061027461063d36600461306a565b611071565b34801561064e57600080fd5b5061035a61065d36600461323e565b61107f565b34801561066e57600080fd5b5061035a61067d3660046132bc565b611243565b34801561068e57600080fd5b5061035a61069d366004613314565b611379565b3480156106ae57600080fd5b506102dc7f9f2df0fed2c77648de5860a4cc508cd0818c85b8b8a1ab4ceeef8d981c8956a681565b3480156106e257600080fd5b5061035a6106f13660046130e9565b6114dd565b34801561070257600080fd5b506102dc61071136600461337e565b6001600160a01b03918216600090815260666020908152604080832093909416825291909152205490565b34801561074857600080fd5b5061075c6107573660046133a8565b611502565b60408051825163ffffffff1681526020928301516001600160e01b03169281019290925201610280565b34801561079257600080fd5b506102dc7f189ab7a9244df0848122154315af71fe140f3db0fe014031783b0946b8c9d2e381565b60007fffffffff0000000000000000000000000000000000000000000000000000000082167f7965db0b00000000000000000000000000000000000000000000000000000000148061084d57507f01ffc9a7000000000000000000000000000000000000000000000000000000007fffffffff000000000000000000000000000000000000000000000000000000008316145b92915050565b606060688054610862906133e8565b80601f016020809104026020016040519081016040528092919081815260200182805461088e906133e8565b80156108db5780601f106108b0576101008083540402835291602001916108db565b820191906000526020600020905b8154815290600101906020018083116108be57829003601f168201915b5050505050905090565b6000336108f3818585611587565b5060019392505050565b60003361090b8582856116df565b61091685858561176b565b60019150505b9392505050565b60008281526097602052604090206001015461093e81611965565b610948838361196f565b505050565b6000610957611a11565b905090565b6001600160a01b03811633146109df5760405162461bcd60e51b815260206004820152602f60248201527f416363657373436f6e74726f6c3a2063616e206f6e6c792072656e6f756e636560448201527f20726f6c657320666f722073656c66000000000000000000000000000000000060648201526084015b60405180910390fd5b6109e98282611a8c565b5050565b6001600160a01b037f0000000000000000000000000000000000000000000000000000000000000000163003610a7a5760405162461bcd60e51b815260206004820152602c60248201527f46756e6374696f6e206d7573742062652063616c6c6564207468726f7567682060448201526b19195b1959d85d1958d85b1b60a21b60648201526084016109d6565b7f00000000000000000000000000000000000000000000000000000000000000006001600160a01b0316610ad57f360894a13ba1a3210667c828492db98dca3e2076cc3735a920a3ca505d382bbc546001600160a01b031690565b6001600160a01b031614610b405760405162461bcd60e51b815260206004820152602c60248201527f46756e6374696f6e206d7573742062652063616c6c6564207468726f7567682060448201526b6163746976652070726f787960a01b60648201526084016109d6565b610b4981611b0f565b60408051600080825260208201909252610b6591839190611b39565b50565b3360008181526066602090815260408083206001600160a01b03871684529091528120549091906108f39082908690610ba2908790613432565b611587565b6000438210610bf85760405162461bcd60e51b815260206004820152601f60248201527f4552433230566f7465733a20626c6f636b206e6f7420796574206d696e65640060448201526064016109d6565b6001600160a01b03831660009081526101316020526040902061091c9083611cd9565b7f9f2df0fed2c77648de5860a4cc508cd0818c85b8b8a1ab4ceeef8d981c8956a6610c4581611965565b6109488383611dd0565b6001600160a01b037f0000000000000000000000000000000000000000000000000000000000000000163003610cdc5760405162461bcd60e51b815260206004820152602c60248201527f46756e6374696f6e206d7573742062652063616c6c6564207468726f7567682060448201526b19195b1959d85d1958d85b1b60a21b60648201526084016109d6565b7f00000000000000000000000000000000000000000000000000000000000000006001600160a01b0316610d377f360894a13ba1a3210667c828492db98dca3e2076cc3735a920a3ca505d382bbc546001600160a01b031690565b6001600160a01b031614610da25760405162461bcd60e51b815260206004820152602c60248201527f46756e6374696f6e206d7573742062652063616c6c6564207468726f7567682060448201526b6163746976652070726f787960a01b60648201526084016109d6565b610dab82611b0f565b6109e982826001611b39565b6000306001600160a01b037f00000000000000000000000000000000000000000000000000000000000000001614610e575760405162461bcd60e51b815260206004820152603860248201527f555550535570677261646561626c653a206d757374206e6f742062652063616c60448201527f6c6564207468726f7567682064656c656761746563616c6c000000000000000060648201526084016109d6565b507f360894a13ba1a3210667c828492db98dca3e2076cc3735a920a3ca505d382bbc90565b610b653382611dda565b6001600160a01b0381166000908152610131602052604081205461084d90611e62565b6001600160a01b038116600090815260fd602052604081205461084d565b6000438210610f185760405162461bcd60e51b815260206004820152601f60248201527f4552433230566f7465733a20626c6f636b206e6f7420796574206d696e65640060448201526064016109d6565b61084d61013283611cd9565b606060698054610862906133e8565b6001600160a01b038116600090815261013160205260408120548015610fa9576001600160a01b038316600090815261013160205260409020610f77600183613445565b81548110610f8757610f87613458565b60009182526020909120015464010000000090046001600160e01b0316610fac565b60005b6001600160e01b03169392505050565b3360008181526066602090815260408083206001600160a01b0387168452909152812054909190838110156110595760405162461bcd60e51b815260206004820152602560248201527f45524332303a2064656372656173656420616c6c6f77616e63652062656c6f7760448201527f207a65726f00000000000000000000000000000000000000000000000000000060648201526084016109d6565b6110668286868403611587565b506001949350505050565b6000336108f381858561176b565b600054610100900460ff161580801561109f5750600054600160ff909116105b806110b95750303b1580156110b9575060005460ff166001145b61112b5760405162461bcd60e51b815260206004820152602e60248201527f496e697469616c697a61626c653a20636f6e747261637420697320616c72656160448201527f647920696e697469616c697a656400000000000000000000000000000000000060648201526084016109d6565b6000805460ff19166001179055801561114e576000805461ff0019166101001790555b6111588484611ee2565b611160611f57565b61116984611fc4565b611171611f57565b611179611f57565b611198336111896012600a613552565b6111939085613561565b611dd0565b6111a360003361196f565b6111cd7f9f2df0fed2c77648de5860a4cc508cd0818c85b8b8a1ab4ceeef8d981c8956a63361196f565b6111f77f189ab7a9244df0848122154315af71fe140f3db0fe014031783b0946b8c9d2e33361196f565b801561123d576000805461ff0019169055604051600181527f7f26b83ff96e1f2b6a682f133852f6798a09c465da95921460cefb38474024989060200160405180910390a15b50505050565b834211156112935760405162461bcd60e51b815260206004820152601d60248201527f4552433230566f7465733a207369676e6174757265206578706972656400000060448201526064016109d6565b604080517fe48329057bfd03d55e49b547132e39cffd9c1820ad7b9d4c5307691425d15adf60208201526001600160a01b03881691810191909152606081018690526080810185905260009061130d906113059060a0016040516020818303038152906040528051906020012061206e565b8585856120d7565b9050611318816120ff565b86146113665760405162461bcd60e51b815260206004820152601960248201527f4552433230566f7465733a20696e76616c6964206e6f6e63650000000000000060448201526064016109d6565b6113708188611dda565b50505050505050565b834211156113c95760405162461bcd60e51b815260206004820152601d60248201527f45524332305065726d69743a206578706972656420646561646c696e6500000060448201526064016109d6565b60007f6e71edae12b1b97f4d1f60370fef10105fa2faae0126114a169c64845d6126c98888886113f88c6120ff565b6040805160208101969096526001600160a01b0394851690860152929091166060840152608083015260a082015260c0810186905260e00160405160208183030381529060405280519060200120905060006114538261206e565b90506000611463828787876120d7565b9050896001600160a01b0316816001600160a01b0316146114c65760405162461bcd60e51b815260206004820152601e60248201527f45524332305065726d69743a20696e76616c6964207369676e6174757265000060448201526064016109d6565b6114d18a8a8a611587565b50505050505050505050565b6000828152609760205260409020600101546114f881611965565b6109488383611a8c565b60408051808201909152600080825260208201526001600160a01b038316600090815261013160205260409020805463ffffffff841690811061154757611547613458565b60009182526020918290206040805180820190915291015463ffffffff8116825264010000000090046001600160e01b0316918101919091529392505050565b6001600160a01b0383166116025760405162461bcd60e51b8152602060048201526024808201527f45524332303a20617070726f76652066726f6d20746865207a65726f2061646460448201527f726573730000000000000000000000000000000000000000000000000000000060648201526084016109d6565b6001600160a01b03821661167e5760405162461bcd60e51b815260206004820152602260248201527f45524332303a20617070726f766520746f20746865207a65726f20616464726560448201527f737300000000000000000000000000000000000000000000000000000000000060648201526084016109d6565b6001600160a01b0383811660008181526066602090815260408083209487168084529482529182902085905590518481527f8c5be1e5ebec7d5bd14f71427d1e84f3dd0314c0f7b2291e5b200ac8c7c3b925910160405180910390a3505050565b6001600160a01b03838116600090815260666020908152604080832093861683529290522054600019811461123d578181101561175e5760405162461bcd60e51b815260206004820152601d60248201527f45524332303a20696e73756666696369656e7420616c6c6f77616e636500000060448201526064016109d6565b61123d8484848403611587565b6001600160a01b0383166117e75760405162461bcd60e51b815260206004820152602560248201527f45524332303a207472616e736665722066726f6d20746865207a65726f20616460448201527f647265737300000000000000000000000000000000000000000000000000000060648201526084016109d6565b6001600160a01b0382166118635760405162461bcd60e51b815260206004820152602360248201527f45524332303a207472616e7366657220746f20746865207a65726f206164647260448201527f657373000000000000000000000000000000000000000000000000000000000060648201526084016109d6565b6001600160a01b038316600090815260656020526040902054818110156118f25760405162461bcd60e51b815260206004820152602660248201527f45524332303a207472616e7366657220616d6f756e742065786365656473206260448201527f616c616e6365000000000000000000000000000000000000000000000000000060648201526084016109d6565b6001600160a01b0380851660008181526065602052604080822086860390559286168082529083902080548601905591517fddf252ad1be2c89b69c2b068fc378daa952ba7f163c4a11628f55a4df523b3ef906119529086815260200190565b60405180910390a361123d848484612127565b610b658133612132565b60008281526097602090815260408083206001600160a01b038516845290915290205460ff166109e95760008281526097602090815260408083206001600160a01b03851684529091529020805460ff191660011790556119cd3390565b6001600160a01b0316816001600160a01b0316837f2f8788117e7eff1d82e926ec794901d17c78024a50270940304540a733656f0d60405160405180910390a45050565b60006109577f8b73c3c69bb8fe3d512ecc4cf759cc79239f7b179b0ffacaa9a75d522b39400f611a4060c95490565b60ca546040805160208101859052908101839052606081018290524660808201523060a082015260009060c0016040516020818303038152906040528051906020012090509392505050565b60008281526097602090815260408083206001600160a01b038516845290915290205460ff16156109e95760008281526097602090815260408083206001600160a01b0385168085529252808320805460ff1916905551339285917ff6391f5c32d9c69d2a47ea670b442974b53935d1edc7fd64eb21e047a839171b9190a45050565b7f189ab7a9244df0848122154315af71fe140f3db0fe014031783b0946b8c9d2e36109e981611965565b7f4910fdfa16fed3260ed0e7147f7cc6da11a60208b5b9406d12a635614ffd91435460ff1615611b6c57610948836121a7565b826001600160a01b03166352d1902d6040518163ffffffff1660e01b8152600401602060405180830381865afa925050508015611bc6575060408051601f3d908101601f19168201909252611bc391810190613578565b60015b611c385760405162461bcd60e51b815260206004820152602e60248201527f45524331393637557067726164653a206e657720696d706c656d656e7461746960448201527f6f6e206973206e6f74205555505300000000000000000000000000000000000060648201526084016109d6565b7f360894a13ba1a3210667c828492db98dca3e2076cc3735a920a3ca505d382bbc8114611ccd5760405162461bcd60e51b815260206004820152602960248201527f45524331393637557067726164653a20756e737570706f727465642070726f7860448201527f6961626c6555554944000000000000000000000000000000000000000000000060648201526084016109d6565b50610948838383612272565b815460009081816005811115611d33576000611cf484612297565b611cfe9085613445565b600088815260209020909150869082015463ffffffff161115611d2357809150611d31565b611d2e816001613432565b92505b505b80821015611d80576000611d47838361237f565b600088815260209020909150869082015463ffffffff161115611d6c57809150611d7a565b611d77816001613432565b92505b50611d33565b8015611dba57611da386611d95600184613445565b600091825260209091200190565b5464010000000090046001600160e01b0316611dbd565b60005b6001600160e01b03169695505050505050565b6109e9828261239a565b6001600160a01b03828116600081815261013060208181526040808420805460658452828620549490935287871673ffffffffffffffffffffffffffffffffffffffff198416811790915590519190951694919391928592917f3134e8a2e6d97e929a7e54011ea5485d7d196dd5f0ba4d4ef95803e8e3fc257f9190a461123d828483612432565b600063ffffffff821115611ede5760405162461bcd60e51b815260206004820152602660248201527f53616665436173743a2076616c756520646f65736e27742066697420696e203360448201527f322062697473000000000000000000000000000000000000000000000000000060648201526084016109d6565b5090565b600054610100900460ff16611f4d5760405162461bcd60e51b815260206004820152602b60248201527f496e697469616c697a61626c653a20636f6e7472616374206973206e6f74206960448201526a6e697469616c697a696e6760a81b60648201526084016109d6565b6109e98282612571565b600054610100900460ff16611fc25760405162461bcd60e51b815260206004820152602b60248201527f496e697469616c697a61626c653a20636f6e7472616374206973206e6f74206960448201526a6e697469616c697a696e6760a81b60648201526084016109d6565b565b600054610100900460ff1661202f5760405162461bcd60e51b815260206004820152602b60248201527f496e697469616c697a61626c653a20636f6e7472616374206973206e6f74206960448201526a6e697469616c697a696e6760a81b60648201526084016109d6565b610b65816040518060400160405280600181526020017f31000000000000000000000000000000000000000000000000000000000000008152506125f5565b600061084d61207b611a11565b836040517f19010000000000000000000000000000000000000000000000000000000000006020820152602281018390526042810182905260009060620160405160208183030381529060405280519060200120905092915050565b60008060006120e88787878761267a565b915091506120f58161273e565b5095945050505050565b6001600160a01b038116600090815260fd602052604090208054600181018255905b50919050565b6109488383836128a3565b60008281526097602090815260408083206001600160a01b038516845290915290205460ff166109e957612165816128d6565b6121708360206128e8565b604051602001612181929190613591565b60408051601f198184030181529082905262461bcd60e51b82526109d69160040161301b565b6001600160a01b0381163b6122245760405162461bcd60e51b815260206004820152602d60248201527f455243313936373a206e657720696d706c656d656e746174696f6e206973206e60448201527f6f74206120636f6e74726163740000000000000000000000000000000000000060648201526084016109d6565b7f360894a13ba1a3210667c828492db98dca3e2076cc3735a920a3ca505d382bbc805473ffffffffffffffffffffffffffffffffffffffff19166001600160a01b0392909216919091179055565b61227b83612ac9565b6000825111806122885750805b156109485761123d8383612b09565b6000816000036122a957506000919050565b600060016122b684612c14565b901c6001901b905060018184816122cf576122cf613612565b048201901c905060018184816122e7576122e7613612565b048201901c905060018184816122ff576122ff613612565b048201901c9050600181848161231757612317613612565b048201901c9050600181848161232f5761232f613612565b048201901c9050600181848161234757612347613612565b048201901c9050600181848161235f5761235f613612565b048201901c905061091c8182858161237957612379613612565b04612ca8565b600061238e6002848418613628565b61091c90848416613432565b6123a48282612cbe565b6067546001600160e01b0310156124235760405162461bcd60e51b815260206004820152603060248201527f4552433230566f7465733a20746f74616c20737570706c79207269736b73206f60448201527f766572666c6f77696e6720766f7465730000000000000000000000000000000060648201526084016109d6565b61123d610132612d8783612d93565b816001600160a01b0316836001600160a01b0316141580156124545750600081115b15610948576001600160a01b038316156124e3576001600160a01b038316600090815261013160205260408120819061249090612ee785612d93565b91509150846001600160a01b03167fdec2bacdd2f05b59de34da9b523dff8be42e5e38e818c82fdb0bae774387a72483836040516124d8929190918252602082015260400190565b60405180910390a250505b6001600160a01b03821615610948576001600160a01b038216600090815261013160205260408120819061251a90612d8785612d93565b91509150836001600160a01b03167fdec2bacdd2f05b59de34da9b523dff8be42e5e38e818c82fdb0bae774387a7248383604051612562929190918252602082015260400190565b60405180910390a25050505050565b600054610100900460ff166125dc5760405162461bcd60e51b815260206004820152602b60248201527f496e697469616c697a61626c653a20636f6e7472616374206973206e6f74206960448201526a6e697469616c697a696e6760a81b60648201526084016109d6565b60686125e88382613698565b5060696109488282613698565b600054610100900460ff166126605760405162461bcd60e51b815260206004820152602b60248201527f496e697469616c697a61626c653a20636f6e7472616374206973206e6f74206960448201526a6e697469616c697a696e6760a81b60648201526084016109d6565b81516020928301208151919092012060c99190915560ca55565b6000807f7fffffffffffffffffffffffffffffff5d576e7357a4501ddfe92f46681b20a08311156126b15750600090506003612735565b6040805160008082526020820180845289905260ff881692820192909252606081018690526080810185905260019060a0016020604051602081039080840390855afa158015612705573d6000803e3d6000fd5b5050604051601f1901519150506001600160a01b03811661272e57600060019250925050612735565b9150600090505b94509492505050565b600081600481111561275257612752613758565b0361275a5750565b600181600481111561276e5761276e613758565b036127bb5760405162461bcd60e51b815260206004820152601860248201527f45434453413a20696e76616c6964207369676e6174757265000000000000000060448201526064016109d6565b60028160048111156127cf576127cf613758565b0361281c5760405162461bcd60e51b815260206004820152601f60248201527f45434453413a20696e76616c6964207369676e6174757265206c656e6774680060448201526064016109d6565b600381600481111561283057612830613758565b03610b655760405162461bcd60e51b815260206004820152602260248201527f45434453413a20696e76616c6964207369676e6174757265202773272076616c60448201527f756500000000000000000000000000000000000000000000000000000000000060648201526084016109d6565b6001600160a01b038381166000908152610130602052604080822054858416835291205461094892918216911683612432565b606061084d6001600160a01b03831660145b606060006128f7836002613561565b612902906002613432565b67ffffffffffffffff81111561291a5761291a613130565b6040519080825280601f01601f191660200182016040528015612944576020820181803683370190505b5090507f30000000000000000000000000000000000000000000000000000000000000008160008151811061297b5761297b613458565b60200101906001600160f81b031916908160001a9053507f7800000000000000000000000000000000000000000000000000000000000000816001815181106129c6576129c6613458565b60200101906001600160f81b031916908160001a90535060006129ea846002613561565b6129f5906001613432565b90505b6001811115612a7a577f303132333435363738396162636465660000000000000000000000000000000085600f1660108110612a3657612a36613458565b1a60f81b828281518110612a4c57612a4c613458565b60200101906001600160f81b031916908160001a90535060049490941c93612a738161376e565b90506129f8565b50831561091c5760405162461bcd60e51b815260206004820181905260248201527f537472696e67733a20686578206c656e67746820696e73756666696369656e7460448201526064016109d6565b612ad2816121a7565b6040516001600160a01b038216907fbc7cd75a20ee27fd9adebab32041f755214dbc6bffa90cc0225b39da2e5c2d3b90600090a250565b60606001600160a01b0383163b612b885760405162461bcd60e51b815260206004820152602660248201527f416464726573733a2064656c65676174652063616c6c20746f206e6f6e2d636f60448201527f6e7472616374000000000000000000000000000000000000000000000000000060648201526084016109d6565b600080846001600160a01b031684604051612ba39190613785565b600060405180830381855af49150503d8060008114612bde576040519150601f19603f3d011682016040523d82523d6000602084013e612be3565b606091505b5091509150612c0b82826040518060600160405280602781526020016137a260279139612ef3565b95945050505050565b600080608083901c15612c2957608092831c92015b604083901c15612c3b57604092831c92015b602083901c15612c4d57602092831c92015b601083901c15612c5f57601092831c92015b600883901c15612c7157600892831c92015b600483901c15612c8357600492831c92015b600283901c15612c9557600292831c92015b600183901c1561084d5760010192915050565b6000818310612cb7578161091c565b5090919050565b6001600160a01b038216612d145760405162461bcd60e51b815260206004820152601f60248201527f45524332303a206d696e7420746f20746865207a65726f20616464726573730060448201526064016109d6565b8060676000828254612d269190613432565b90915550506001600160a01b0382166000818152606560209081526040808320805486019055518481527fddf252ad1be2c89b69c2b068fc378daa952ba7f163c4a11628f55a4df523b3ef910160405180910390a36109e960008383612127565b600061091c8284613432565b82546000908190818115612de057612db087611d95600185613445565b60408051808201909152905463ffffffff8116825264010000000090046001600160e01b03166020820152612df5565b60408051808201909152600080825260208201525b905080602001516001600160e01b03169350612e1584868863ffffffff16565b9250600082118015612e2d5750805163ffffffff1643145b15612e7257612e3b83612f0c565b612e4a88611d95600186613445565b80546001600160e01b03929092166401000000000263ffffffff909216919091179055612edd565b866040518060400160405280612e8743611e62565b63ffffffff168152602001612e9b86612f0c565b6001600160e01b0390811690915282546001810184556000938452602093849020835194909301519091166401000000000263ffffffff909316929092179101555b5050935093915050565b600061091c8284613445565b60608315612f0257508161091c565b61091c8383612f8b565b60006001600160e01b03821115611ede5760405162461bcd60e51b815260206004820152602760248201527f53616665436173743a2076616c756520646f65736e27742066697420696e203260448201527f323420626974730000000000000000000000000000000000000000000000000060648201526084016109d6565b815115612f9b5781518083602001fd5b8060405162461bcd60e51b81526004016109d6919061301b565b600060208284031215612fc757600080fd5b81357fffffffff000000000000000000000000000000000000000000000000000000008116811461091c57600080fd5b60005b83811015613012578181015183820152602001612ffa565b50506000910152565b602081526000825180602084015261303a816040850160208701612ff7565b601f01601f19169190910160400192915050565b80356001600160a01b038116811461306557600080fd5b919050565b6000806040838503121561307d57600080fd5b6130868361304e565b946020939093013593505050565b6000806000606084860312156130a957600080fd5b6130b28461304e565b92506130c06020850161304e565b9150604084013590509250925092565b6000602082840312156130e257600080fd5b5035919050565b600080604083850312156130fc57600080fd5b8235915061310c6020840161304e565b90509250929050565b60006020828403121561312757600080fd5b61091c8261304e565b634e487b7160e01b600052604160045260246000fd5b600067ffffffffffffffff8084111561316157613161613130565b604051601f8501601f19908116603f0116810190828211818310171561318957613189613130565b816040528093508581528686860111156131a257600080fd5b858560208301376000602087830101525050509392505050565b600080604083850312156131cf57600080fd5b6131d88361304e565b9150602083013567ffffffffffffffff8111156131f457600080fd5b8301601f8101851361320557600080fd5b61321485823560208401613146565b9150509250929050565b600082601f83011261322f57600080fd5b61091c83833560208501613146565b60008060006060848603121561325357600080fd5b833567ffffffffffffffff8082111561326b57600080fd5b6132778783880161321e565b9450602086013591508082111561328d57600080fd5b5061329a8682870161321e565b925050604084013590509250925092565b803560ff8116811461306557600080fd5b60008060008060008060c087890312156132d557600080fd5b6132de8761304e565b955060208701359450604087013593506132fa606088016132ab565b92506080870135915060a087013590509295509295509295565b600080600080600080600060e0888a03121561332f57600080fd5b6133388861304e565b96506133466020890161304e565b95506040880135945060608801359350613362608089016132ab565b925060a0880135915060c0880135905092959891949750929550565b6000806040838503121561339157600080fd5b61339a8361304e565b915061310c6020840161304e565b600080604083850312156133bb57600080fd5b6133c48361304e565b9150602083013563ffffffff811681146133dd57600080fd5b809150509250929050565b600181811c908216806133fc57607f821691505b60208210810361212157634e487b7160e01b600052602260045260246000fd5b634e487b7160e01b600052601160045260246000fd5b8082018082111561084d5761084d61341c565b8181038181111561084d5761084d61341c565b634e487b7160e01b600052603260045260246000fd5b600181815b808511156134a957816000190482111561348f5761348f61341c565b8085161561349c57918102915b93841c9390800290613473565b509250929050565b6000826134c05750600161084d565b816134cd5750600061084d565b81600181146134e357600281146134ed57613509565b600191505061084d565b60ff8411156134fe576134fe61341c565b50506001821b61084d565b5060208310610133831016604e8410600b841016171561352c575081810a61084d565b613536838361346e565b806000190482111561354a5761354a61341c565b029392505050565b600061091c60ff8416836134b1565b808202811582820484141761084d5761084d61341c565b60006020828403121561358a57600080fd5b5051919050565b7f416363657373436f6e74726f6c3a206163636f756e74200000000000000000008152600083516135c9816017850160208801612ff7565b7f206973206d697373696e6720726f6c65200000000000000000000000000000006017918401918201528351613606816028840160208801612ff7565b01602801949350505050565b634e487b7160e01b600052601260045260246000fd5b60008261364557634e487b7160e01b600052601260045260246000fd5b500490565b601f82111561094857600081815260208120601f850160051c810160208610156136715750805b601f850160051c820191505b818110156136905782815560010161367d565b505050505050565b815167ffffffffffffffff8111156136b2576136b2613130565b6136c6816136c084546133e8565b8461364a565b602080601f8311600181146136fb57600084156136e35750858301515b600019600386901b1c1916600185901b178555613690565b600085815260208120601f198616915b8281101561372a5788860151825594840194600190910190840161370b565b50858210156137485787850151600019600388901b60f8161c191681555b5050505050600190811b01905550565b634e487b7160e01b600052602160045260246000fd5b60008161377d5761377d61341c565b506000190190565b60008251613797818460208701612ff7565b919091019291505056fe416464726573733a206c6f772d6c6576656c2064656c65676174652063616c6c206661696c6564a2646970667358221220574f5eeb0b0be4b5af277d20a3048d5de53e8b4b7490fa1e79451a1f0db698f164736f6c63430008110033",
  "linkReferences": {},
  "deployedLinkReferences": {}
}