{
  "_format": "hh-sol-artifact-1",
  "contractName": "VIPModelToken",
  "sourceName": "contracts/VIPModelToken.sol",
  "abi": [
    {
      "inputs": [],
      "stateMutability": "nonpayable",
      "type": "constructor"
    },
    {
      "anonymous": false,
      "inputs": [
        {
          "indexed": false,
          "internalType": "address",
          "name": "previousAdmin",
          "type": "address"
        },
        {
          "indexed": false,
          "internalType": "address",
          "name": "newAdmin",
          "type": "address"
        }
      ],
      "name": "AdminChanged",
      "type": "event"
    },
    {
      "anonymous": false,
      "inputs": [
        {
          "indexed": true,
          "internalType": "address",
          "name": "owner",
          "type": "address"
        },
        {
          "indexed": true,
          "internalType": "address",
          "name": "approved",
          "type": "address"
        },
        {
          "indexed": true,
          "internalType": "uint256",
          "name": "tokenId",
          "type": "uint256"
        }
      ],
      "name": "Approval",
      "type": "event"
    },
    {
      "anonymous": false,
      "inputs": [
        {
          "indexed": true,
          "internalType": "address",
          "name": "owner",
          "type": "address"
        },
        {
          "indexed": true,
          "internalType": "address",
          "name": "operator",
          "type": "address"
        },
        {
          "indexed": false,
          "internalType": "bool",
          "name": "approved",
          "type": "bool"
        }
      ],
      "name": "ApprovalForAll",
      "type": "event"
    },
    {
      "anonymous": false,
      "inputs": [
        {
          "indexed": true,
          "internalType": "address",
          "name": "beacon",
          "type": "address"
        }
      ],
      "name": "BeaconUpgraded",
      "type": "event"
    },
    {
      "anonymous": false,
      "inputs": [
        {
          "indexed": false,
          "internalType": "uint8",
          "name": "version",
          "type": "uint8"
        }
      ],
      "name": "Initialized",
      "type": "event"
    },
    {
      "anonymous": false,
      "inputs": [
        {
          "indexed": true,
          "internalType": "bytes32",
          "name": "role",
          "type": "bytes32"
        },
        {
          "indexed": true,
          "internalType": "bytes32",
          "name": "previousAdminRole",
          "type": "bytes32"
        },
        {
          "indexed": true,
          "internalType": "bytes32",
          "name": "newAdminRole",
          "type": "bytes32"
        }
      ],
      "name": "RoleAdminChanged",
      "type": "event"
    },
    {
      "anonymous": false,
      "inputs": [
        {
          "indexed": true,
          "internalType": "bytes32",
          "name": "role",
          "type": "bytes32"
        },
        {
          "indexed": true,
          "internalType": "address",
          "name": "account",
          "type": "address"
        },
        {
          "indexed": true,
          "internalType": "address",
          "name": "sender",
          "type": "address"
        }
      ],
      "name": "RoleGranted",
      "type": "event"
    },
    {
      "anonymous": false,
      "inputs": [
        {
          "indexed": true,
          "internalType": "bytes32",
          "name": "role",
          "type": "bytes32"
        },
        {
          "indexed": true,
          "internalType": "address",
          "name": "account",
          "type": "address"
        },
        {
          "indexed": true,
          "internalType": "address",
          "name": "sender",
          "type": "address"
        }
      ],
      "name": "RoleRevoked",
      "type": "event"
    },
    {
      "anonymous": false,
      "inputs": [
        {
          "indexed": true,
          "internalType": "address",
          "name": "from",
          "type": "address"
        },
        {
          "indexed": true,
          "internalType": "address",
          "name": "to",
          "type": "address"
        },
        {
          "indexed": true,
          "internalType": "uint256",
          "name": "tokenId",
          "type": "uint256"
        }
      ],
      "name": "Transfer",
      "type": "event"
    },
    {
      "anonymous": false,
      "inputs": [
        {
          "indexed": true,
          "internalType": "address",
          "name": "implementation",
          "type": "address"
        }
      ],
      "name": "Upgraded",
      "type": "event"
    },
    {
      "inputs": [],
      "name": "DEFAULT_ADMIN_ROLE",
      "outputs": [
        {
          "internalType": "bytes32",
          "name": "",
          "type": "bytes32"
        }
      ],
      "stateMutability": "view",
      "type": "function"
    },
    {
      "inputs": [],
      "name": "MINTER_ROLE",
      "outputs": [
        {
          "internalType": "bytes32",
          "name": "",
          "type": "bytes32"
        }
      ],
      "stateMutability": "view",
      "type": "function"
    },
    {
      "inputs": [],
      "name": "UPGRADER_ROLE",
      "outputs": [
        {
          "internalType": "bytes32",
          "name": "",
          "type": "bytes32"
        }
      ],
      "stateMutability": "view",
      "type": "function"
    },
    {
      "inputs": [
        {
          "internalType": "address",
          "name": "to",
          "type": "address"
        },
        {
          "internalType": "uint256",
          "name": "tokenId",
          "type": "uint256"
        }
      ],
      "name": "approve",
      "outputs": [],
      "stateMutability": "nonpayable",
      "type": "function"
    },
    {
      "inputs": [
        {
          "internalType": "address",
          "name": "owner",
          "type": "address"
        }
      ],
      "name": "balanceOf",
      "outputs": [
        {
          "internalType": "uint256",
          "name": "",
          "type": "uint256"
        }
      ],
      "stateMutability": "view",
      "type": "function"
    },
    {
      "inputs": [
        {
          "internalType": "uint256",
          "name": "tokenId",
          "type": "uint256"
        }
      ],
      "name": "getApproved",
      "outputs": [
        {
          "internalType": "address",
          "name": "",
          "type": "address"
        }
      ],
      "stateMutability": "view",
      "type": "function"
    },
    {
      "inputs": [
        {
          "internalType": "bytes32",
          "name": "role",
          "type": "bytes32"
        }
      ],
      "name": "getRoleAdmin",
      "outputs": [
        {
          "internalType": "bytes32",
          "name": "",
          "type": "bytes32"
        }
      ],
      "stateMutability": "view",
      "type": "function"
    },
    {
      "inputs": [
        {
          "internalType": "bytes32",
          "name": "role",
          "type": "bytes32"
        },
        {
          "internalType": "address",
          "name": "account",
          "type": "address"
        }
      ],
      "name": "grantRole",
      "outputs": [],
      "stateMutability": "nonpayable",
      "type": "function"
    },
    {
      "inputs": [
        {
          "internalType": "bytes32",
          "name": "role",
          "type": "bytes32"
        },
        {
          "internalType": "address",
          "name": "account",
          "type": "address"
        }
      ],
      "name": "hasRole",
      "outputs": [
        {
          "internalType": "bool",
          "name": "",
          "type": "bool"
        }
      ],
      "stateMutability": "view",
      "type": "function"
    },
    {
      "inputs": [
        {
          "internalType": "string",
          "name": "name",
          "type": "string"
        },
        {
          "internalType": "string",
          "name": "symbol",
          "type": "string"
        }
      ],
      "name": "initialize",
      "outputs": [],
      "stateMutability": "nonpayable",
      "type": "function"
    },
    {
      "inputs": [
        {
          "internalType": "address",
          "name": "owner",
          "type": "address"
        },
        {
          "internalType": "address",
          "name": "operator",
          "type": "address"
        }
      ],
      "name": "isApprovedForAll",
      "outputs": [
        {
          "internalType": "bool",
          "name": "",
          "type": "bool"
        }
      ],
      "stateMutability": "view",
      "type": "function"
    },
    {
      "inputs": [],
      "name": "name",
      "outputs": [
        {
          "internalType": "string",
          "name": "",
          "type": "string"
        }
      ],
      "stateMutability": "view",
      "type": "function"
    },
    {
      "inputs": [
        {
          "internalType": "uint256",
          "name": "tokenId",
          "type": "uint256"
        }
      ],
      "name": "ownerOf",
      "outputs": [
        {
          "internalType": "address",
          "name": "",
          "type": "address"
        }
      ],
      "stateMutability": "view",
      "type": "function"
    },
    {
      "inputs": [],
      "name": "proxiableUUID",
      "outputs": [
        {
          "internalType": "bytes32",
          "name": "",
          "type": "bytes32"
        }
      ],
      "stateMutability": "view",
      "type": "function"
    },
    {
      "inputs": [
        {
          "internalType": "bytes32",
          "name": "role",
          "type": "bytes32"
        },
        {
          "internalType": "address",
          "name": "account",
          "type": "address"
        }
      ],
      "name": "renounceRole",
      "outputs": [],
      "stateMutability": "nonpayable",
      "type": "function"
    },
    {
      "inputs": [
        {
          "internalType": "bytes32",
          "name": "role",
          "type": "bytes32"
        },
        {
          "internalType": "address",
          "name": "account",
          "type": "address"
        }
      ],
      "name": "revokeRole",
      "outputs": [],
      "stateMutability": "nonpayable",
      "type": "function"
    },
    {
      "inputs": [
        {
          "internalType": "address",
          "name": "to",
          "type": "address"
        },
        {
          "internalType": "string",
          "name": "uri",
          "type": "string"
        }
      ],
      "name": "safeMint",
      "outputs": [],
      "stateMutability": "nonpayable",
      "type": "function"
    },
    {
      "inputs": [
        {
          "internalType": "address",
          "name": "from",
          "type": "address"
        },
        {
          "internalType": "address",
          "name": "to",
          "type": "address"
        },
        {
          "internalType": "uint256",
          "name": "tokenId",
          "type": "uint256"
        }
      ],
      "name": "safeTransferFrom",
      "outputs": [],
      "stateMutability": "nonpayable",
      "type": "function"
    },
    {
      "inputs": [
        {
          "internalType": "address",
          "name": "from",
          "type": "address"
        },
        {
          "internalType": "address",
          "name": "to",
          "type": "address"
        },
        {
          "internalType": "uint256",
          "name": "tokenId",
          "type": "uint256"
        },
        {
          "internalType": "bytes",
          "name": "data",
          "type": "bytes"
        }
      ],
      "name": "safeTransferFrom",
      "outputs": [],
      "stateMutability": "nonpayable",
      "type": "function"
    },
    {
      "inputs": [
        {
          "internalType": "address",
          "name": "operator",
          "type": "address"
        },
        {
          "internalType": "bool",
          "name": "approved",
          "type": "bool"
        }
      ],
      "name": "setApprovalForAll",
      "outputs": [],
      "stateMutability": "nonpayable",
      "type": "function"
    },
    {
      "inputs": [
        {
          "internalType": "bytes4",
          "name": "interfaceId",
          "type": "bytes4"
        }
      ],
      "name": "supportsInterface",
      "outputs": [
        {
          "internalType": "bool",
          "name": "",
          "type": "bool"
        }
      ],
      "stateMutability": "view",
      "type": "function"
    },
    {
      "inputs": [],
      "name": "symbol",
      "outputs": [
        {
          "internalType": "string",
          "name": "",
          "type": "string"
        }
      ],
      "stateMutability": "view",
      "type": "function"
    },
    {
      "inputs": [
        {
          "internalType": "uint256",
          "name": "tokenId",
          "type": "uint256"
        }
      ],
      "name": "tokenURI",
      "outputs": [
        {
          "internalType": "string",
          "name": "",
          "type": "string"
        }
      ],
      "stateMutability": "view",
      "type": "function"
    },
    {
      "inputs": [
        {
          "internalType": "address",
          "name": "from",
          "type": "address"
        },
        {
          "internalType": "address",
          "name": "to",
          "type": "address"
        },
        {
          "internalType": "uint256",
          "name": "tokenId",
          "type": "uint256"
        }
      ],
      "name": "transferFrom",
      "outputs": [],
      "stateMutability": "nonpayable",
      "type": "function"
    },
    {
      "inputs": [
        {
          "internalType": "address",
          "name": "newImplementation",
          "type": "address"
        }
      ],
      "name": "upgradeTo",
      "outputs": [],
      "stateMutability": "nonpayable",
      "type": "function"
    },
    {
      "inputs": [
        {
          "internalType": "address",
          "name": "newImplementation",
          "type": "address"
        },
        {
          "internalType": "bytes",
          "name": "data",
          "type": "bytes"
        }
      ],
      "name": "upgradeToAndCall",
      "outputs": [],
      "stateMutability": "payable",
      "type": "function"
    }
  ],
  "bytecode": "0x60a0604052306080523480156200001557600080fd5b506200002062000026565b620000e8565b600054610100900460ff1615620000935760405162461bcd60e51b815260206004820152602760248201527f496e697469616c697a61626c653a20636f6e747261637420697320696e697469604482015266616c697a696e6760c81b606482015260840160405180910390fd5b60005460ff9081161015620000e6576000805460ff191660ff9081179091556040519081527f7f26b83ff96e1f2b6a682f133852f6798a09c465da95921460cefb38474024989060200160405180910390a15b565b608051612cf062000120600039600081816108b00152818161093501528181610be001528181610c650152610d4b0152612cf06000f3fe6080604052600436106101a15760003560e01c80636352211e116100e1578063b88d4fde1161008a578063d539139311610064578063d5391393146104ad578063d547741f146104e1578063e985e9c514610501578063f72c0d8b1461054a57600080fd5b8063b88d4fde1461044d578063c87b56dd1461046d578063d204c45e1461048d57600080fd5b806395d89b41116100bb57806395d89b4114610403578063a217fddf14610418578063a22cb4651461042d57600080fd5b80636352211e1461037d57806370a082311461039d57806391d14854146103bd57600080fd5b80632f2ff15d1161014e57806342842e0e1161012857806342842e0e146103155780634cd88b76146103355780634f1ef2861461035557806352d1902d1461036857600080fd5b80632f2ff15d146102b557806336568abe146102d55780633659cfe6146102f557600080fd5b8063095ea7b31161017f578063095ea7b31461023557806323b872dd14610257578063248a9ca31461027757600080fd5b806301ffc9a7146101a657806306fdde03146101db578063081812fc146101fd575b600080fd5b3480156101b257600080fd5b506101c66101c1366004612625565b61057e565b60405190151581526020015b60405180910390f35b3480156101e757600080fd5b506101f061058f565b6040516101d29190612692565b34801561020957600080fd5b5061021d6102183660046126a5565b610621565b6040516001600160a01b0390911681526020016101d2565b34801561024157600080fd5b506102556102503660046126da565b610648565b005b34801561026357600080fd5b50610255610272366004612704565b61077e565b34801561028357600080fd5b506102a76102923660046126a5565b600090815260c9602052604090206001015490565b6040519081526020016101d2565b3480156102c157600080fd5b506102556102d0366004612740565b6107f5565b3480156102e157600080fd5b506102556102f0366004612740565b61081a565b34801561030157600080fd5b5061025561031036600461276c565b6108a6565b34801561032157600080fd5b50610255610330366004612704565b610a21565b34801561034157600080fd5b5061025561035036600461282a565b610a3c565b61025561036336600461288e565b610bd6565b34801561037457600080fd5b506102a7610d3e565b34801561038957600080fd5b5061021d6103983660046126a5565b610e03565b3480156103a957600080fd5b506102a76103b836600461276c565b610e68565b3480156103c957600080fd5b506101c66103d8366004612740565b600091825260c9602090815260408084206001600160a01b0393909316845291905290205460ff1690565b34801561040f57600080fd5b506101f0610f02565b34801561042457600080fd5b506102a7600081565b34801561043957600080fd5b506102556104483660046128d2565b610f11565b34801561045957600080fd5b5061025561046836600461290e565b610f1c565b34801561047957600080fd5b506101f06104883660046126a5565b610f9a565b34801561049957600080fd5b506102556104a836600461288e565b610fa5565b3480156104b957600080fd5b506102a77f9f2df0fed2c77648de5860a4cc508cd0818c85b8b8a1ab4ceeef8d981c8956a681565b3480156104ed57600080fd5b506102556104fc366004612740565b611000565b34801561050d57600080fd5b506101c661051c366004612976565b6001600160a01b039182166000908152606a6020908152604080832093909416825291909152205460ff1690565b34801561055657600080fd5b506102a77f189ab7a9244df0848122154315af71fe140f3db0fe014031783b0946b8c9d2e381565b600061058982611025565b92915050565b60606065805461059e906129a0565b80601f01602080910402602001604051908101604052809291908181526020018280546105ca906129a0565b80156106175780601f106105ec57610100808354040283529160200191610617565b820191906000526020600020905b8154815290600101906020018083116105fa57829003601f168201915b5050505050905090565b600061062c82611063565b506000908152606960205260409020546001600160a01b031690565b600061065382610e03565b9050806001600160a01b0316836001600160a01b0316036106e15760405162461bcd60e51b815260206004820152602160248201527f4552433732313a20617070726f76616c20746f2063757272656e74206f776e6560448201527f720000000000000000000000000000000000000000000000000000000000000060648201526084015b60405180910390fd5b336001600160a01b03821614806106fd57506106fd813361051c565b61076f5760405162461bcd60e51b815260206004820152603d60248201527f4552433732313a20617070726f76652063616c6c6572206973206e6f7420746f60448201527f6b656e206f776e6572206f7220617070726f76656420666f7220616c6c00000060648201526084016106d8565b61077983836110c7565b505050565b6107883382611142565b6107ea5760405162461bcd60e51b815260206004820152602d60248201527f4552433732313a2063616c6c6572206973206e6f7420746f6b656e206f776e6560448201526c1c881bdc88185c1c1c9bdd9959609a1b60648201526084016106d8565b6107798383836111c1565b600082815260c96020526040902060010154610810816113c7565b61077983836113d1565b6001600160a01b03811633146108985760405162461bcd60e51b815260206004820152602f60248201527f416363657373436f6e74726f6c3a2063616e206f6e6c792072656e6f756e636560448201527f20726f6c657320666f722073656c66000000000000000000000000000000000060648201526084016106d8565b6108a28282611473565b5050565b6001600160a01b037f00000000000000000000000000000000000000000000000000000000000000001630036109335760405162461bcd60e51b815260206004820152602c60248201527f46756e6374696f6e206d7573742062652063616c6c6564207468726f7567682060448201526b19195b1959d85d1958d85b1b60a21b60648201526084016106d8565b7f00000000000000000000000000000000000000000000000000000000000000006001600160a01b031661098e7f360894a13ba1a3210667c828492db98dca3e2076cc3735a920a3ca505d382bbc546001600160a01b031690565b6001600160a01b0316146109f95760405162461bcd60e51b815260206004820152602c60248201527f46756e6374696f6e206d7573742062652063616c6c6564207468726f7567682060448201526b6163746976652070726f787960a01b60648201526084016106d8565b610a02816114f6565b60408051600080825260208201909252610a1e91839190611520565b50565b61077983838360405180602001604052806000815250610f1c565b600054610100900460ff1615808015610a5c5750600054600160ff909116105b80610a765750303b158015610a76575060005460ff166001145b610ae85760405162461bcd60e51b815260206004820152602e60248201527f496e697469616c697a61626c653a20636f6e747261637420697320616c72656160448201527f647920696e697469616c697a656400000000000000000000000000000000000060648201526084016106d8565b6000805460ff191660011790558015610b0b576000805461ff0019166101001790555b610b1583836116c0565b610b1d611735565b610b25611735565b610b2d611735565b610b386000336113d1565b610b627f9f2df0fed2c77648de5860a4cc508cd0818c85b8b8a1ab4ceeef8d981c8956a6336113d1565b610b8c7f189ab7a9244df0848122154315af71fe140f3db0fe014031783b0946b8c9d2e3336113d1565b8015610779576000805461ff0019169055604051600181527f7f26b83ff96e1f2b6a682f133852f6798a09c465da95921460cefb38474024989060200160405180910390a1505050565b6001600160a01b037f0000000000000000000000000000000000000000000000000000000000000000163003610c635760405162461bcd60e51b815260206004820152602c60248201527f46756e6374696f6e206d7573742062652063616c6c6564207468726f7567682060448201526b19195b1959d85d1958d85b1b60a21b60648201526084016106d8565b7f00000000000000000000000000000000000000000000000000000000000000006001600160a01b0316610cbe7f360894a13ba1a3210667c828492db98dca3e2076cc3735a920a3ca505d382bbc546001600160a01b031690565b6001600160a01b031614610d295760405162461bcd60e51b815260206004820152602c60248201527f46756e6374696f6e206d7573742062652063616c6c6564207468726f7567682060448201526b6163746976652070726f787960a01b60648201526084016106d8565b610d32826114f6565b6108a282826001611520565b6000306001600160a01b037f00000000000000000000000000000000000000000000000000000000000000001614610dde5760405162461bcd60e51b815260206004820152603860248201527f555550535570677261646561626c653a206d757374206e6f742062652063616c60448201527f6c6564207468726f7567682064656c656761746563616c6c000000000000000060648201526084016106d8565b507f360894a13ba1a3210667c828492db98dca3e2076cc3735a920a3ca505d382bbc90565b6000818152606760205260408120546001600160a01b0316806105895760405162461bcd60e51b815260206004820152601860248201527f4552433732313a20696e76616c696420746f6b656e204944000000000000000060448201526064016106d8565b60006001600160a01b038216610ee65760405162461bcd60e51b815260206004820152602960248201527f4552433732313a2061646472657373207a65726f206973206e6f74206120766160448201527f6c6964206f776e6572000000000000000000000000000000000000000000000060648201526084016106d8565b506001600160a01b031660009081526068602052604090205490565b60606066805461059e906129a0565b6108a23383836117a2565b610f263383611142565b610f885760405162461bcd60e51b815260206004820152602d60248201527f4552433732313a2063616c6c6572206973206e6f7420746f6b656e206f776e6560448201526c1c881bdc88185c1c1c9bdd9959609a1b60648201526084016106d8565b610f9484848484611870565b50505050565b6060610589826118ee565b7f9f2df0fed2c77648de5860a4cc508cd0818c85b8b8a1ab4ceeef8d981c8956a6610fcf816113c7565b6000610fdb61015f5490565b9050610fec61015f80546001019055565b610ff684826119f6565b610f948184611a10565b600082815260c9602052604090206001015461101b816113c7565b6107798383611473565b60006001600160e01b031982167f7965db0b000000000000000000000000000000000000000000000000000000001480610589575061058982611ab2565b6000818152606760205260409020546001600160a01b0316610a1e5760405162461bcd60e51b815260206004820152601860248201527f4552433732313a20696e76616c696420746f6b656e204944000000000000000060448201526064016106d8565b6000818152606960205260409020805473ffffffffffffffffffffffffffffffffffffffff19166001600160a01b038416908117909155819061110982610e03565b6001600160a01b03167f8c5be1e5ebec7d5bd14f71427d1e84f3dd0314c0f7b2291e5b200ac8c7c3b92560405160405180910390a45050565b60008061114e83610e03565b9050806001600160a01b0316846001600160a01b0316148061119557506001600160a01b038082166000908152606a602090815260408083209388168352929052205460ff165b806111b95750836001600160a01b03166111ae84610621565b6001600160a01b0316145b949350505050565b826001600160a01b03166111d482610e03565b6001600160a01b0316146112385760405162461bcd60e51b815260206004820152602560248201527f4552433732313a207472616e736665722066726f6d20696e636f72726563742060448201526437bbb732b960d91b60648201526084016106d8565b6001600160a01b0382166112b35760405162461bcd60e51b8152602060048201526024808201527f4552433732313a207472616e7366657220746f20746865207a65726f2061646460448201527f726573730000000000000000000000000000000000000000000000000000000060648201526084016106d8565b826001600160a01b03166112c682610e03565b6001600160a01b03161461132a5760405162461bcd60e51b815260206004820152602560248201527f4552433732313a207472616e736665722066726f6d20696e636f72726563742060448201526437bbb732b960d91b60648201526084016106d8565b6000818152606960209081526040808320805473ffffffffffffffffffffffffffffffffffffffff199081169091556001600160a01b0387811680865260688552838620805460001901905590871680865283862080546001019055868652606790945282852080549092168417909155905184937fddf252ad1be2c89b69c2b068fc378daa952ba7f163c4a11628f55a4df523b3ef91a4505050565b610a1e8133611b4d565b600082815260c9602090815260408083206001600160a01b038516845290915290205460ff166108a257600082815260c9602090815260408083206001600160a01b03851684529091529020805460ff1916600117905561142f3390565b6001600160a01b0316816001600160a01b0316837f2f8788117e7eff1d82e926ec794901d17c78024a50270940304540a733656f0d60405160405180910390a45050565b600082815260c9602090815260408083206001600160a01b038516845290915290205460ff16156108a257600082815260c9602090815260408083206001600160a01b0385168085529252808320805460ff1916905551339285917ff6391f5c32d9c69d2a47ea670b442974b53935d1edc7fd64eb21e047a839171b9190a45050565b7f189ab7a9244df0848122154315af71fe140f3db0fe014031783b0946b8c9d2e36108a2816113c7565b7f4910fdfa16fed3260ed0e7147f7cc6da11a60208b5b9406d12a635614ffd91435460ff16156115535761077983611bc2565b826001600160a01b03166352d1902d6040518163ffffffff1660e01b8152600401602060405180830381865afa9250505080156115ad575060408051601f3d908101601f191682019092526115aa918101906129da565b60015b61161f5760405162461bcd60e51b815260206004820152602e60248201527f45524331393637557067726164653a206e657720696d706c656d656e7461746960448201527f6f6e206973206e6f74205555505300000000000000000000000000000000000060648201526084016106d8565b7f360894a13ba1a3210667c828492db98dca3e2076cc3735a920a3ca505d382bbc81146116b45760405162461bcd60e51b815260206004820152602960248201527f45524331393637557067726164653a20756e737570706f727465642070726f7860448201527f6961626c6555554944000000000000000000000000000000000000000000000060648201526084016106d8565b50610779838383611c8d565b600054610100900460ff1661172b5760405162461bcd60e51b815260206004820152602b60248201527f496e697469616c697a61626c653a20636f6e7472616374206973206e6f74206960448201526a6e697469616c697a696e6760a81b60648201526084016106d8565b6108a28282611cb2565b600054610100900460ff166117a05760405162461bcd60e51b815260206004820152602b60248201527f496e697469616c697a61626c653a20636f6e7472616374206973206e6f74206960448201526a6e697469616c697a696e6760a81b60648201526084016106d8565b565b816001600160a01b0316836001600160a01b0316036118035760405162461bcd60e51b815260206004820152601960248201527f4552433732313a20617070726f766520746f2063616c6c65720000000000000060448201526064016106d8565b6001600160a01b038381166000818152606a6020908152604080832094871680845294825291829020805460ff191686151590811790915591519182527f17307eab39ab6107e8899845ad3d59bd9653f200f220920489ca2b5937696c31910160405180910390a3505050565b61187b8484846111c1565b61188784848484611d36565b610f945760405162461bcd60e51b815260206004820152603260248201527f4552433732313a207472616e7366657220746f206e6f6e20455243373231526560448201527131b2b4bb32b91034b6b83632b6b2b73a32b960711b60648201526084016106d8565b60606118f982611063565b60008281526097602052604081208054611912906129a0565b80601f016020809104026020016040519081016040528092919081815260200182805461193e906129a0565b801561198b5780601f106119605761010080835404028352916020019161198b565b820191906000526020600020905b81548152906001019060200180831161196e57829003601f168201915b5050505050905060006119a960408051602081019091526000815290565b905080516000036119bb575092915050565b8151156119ed5780826040516020016119d59291906129f3565b60405160208183030381529060405292505050919050565b6111b984611e82565b6108a2828260405180602001604052806000815250611ef6565b6000828152606760205260409020546001600160a01b0316611a9a5760405162461bcd60e51b815260206004820152602e60248201527f45524337323155524953746f726167653a2055524920736574206f66206e6f6e60448201527f6578697374656e7420746f6b656e00000000000000000000000000000000000060648201526084016106d8565b60008281526097602052604090206107798282612a70565b60006001600160e01b031982167f80ac58cd000000000000000000000000000000000000000000000000000000001480611b1557506001600160e01b031982167f5b5e139f00000000000000000000000000000000000000000000000000000000145b8061058957507f01ffc9a7000000000000000000000000000000000000000000000000000000006001600160e01b0319831614610589565b600082815260c9602090815260408083206001600160a01b038516845290915290205460ff166108a257611b8081611f74565b611b8b836020611f86565b604051602001611b9c929190612b30565b60408051601f198184030181529082905262461bcd60e51b82526106d891600401612692565b6001600160a01b0381163b611c3f5760405162461bcd60e51b815260206004820152602d60248201527f455243313936373a206e657720696d706c656d656e746174696f6e206973206e60448201527f6f74206120636f6e74726163740000000000000000000000000000000000000060648201526084016106d8565b7f360894a13ba1a3210667c828492db98dca3e2076cc3735a920a3ca505d382bbc805473ffffffffffffffffffffffffffffffffffffffff19166001600160a01b0392909216919091179055565b611c9683612167565b600082511180611ca35750805b1561077957610f9483836121a7565b600054610100900460ff16611d1d5760405162461bcd60e51b815260206004820152602b60248201527f496e697469616c697a61626c653a20636f6e7472616374206973206e6f74206960448201526a6e697469616c697a696e6760a81b60648201526084016106d8565b6065611d298382612a70565b5060666107798282612a70565b60006001600160a01b0384163b15611e7757604051630a85bd0160e11b81526001600160a01b0385169063150b7a0290611d7a903390899088908890600401612bb1565b6020604051808303816000875af1925050508015611db5575060408051601f3d908101601f19168201909252611db291810190612bed565b60015b611e5d573d808015611de3576040519150601f19603f3d011682016040523d82523d6000602084013e611de8565b606091505b508051600003611e555760405162461bcd60e51b815260206004820152603260248201527f4552433732313a207472616e7366657220746f206e6f6e20455243373231526560448201527131b2b4bb32b91034b6b83632b6b2b73a32b960711b60648201526084016106d8565b805181602001fd5b6001600160e01b031916630a85bd0160e11b1490506111b9565b506001949350505050565b6060611e8d82611063565b6000611ea460408051602081019091526000815290565b90506000815111611ec45760405180602001604052806000815250611eef565b80611ece846122b2565b604051602001611edf9291906129f3565b6040516020818303038152906040525b9392505050565b611f008383612352565b611f0d6000848484611d36565b6107795760405162461bcd60e51b815260206004820152603260248201527f4552433732313a207472616e7366657220746f206e6f6e20455243373231526560448201527131b2b4bb32b91034b6b83632b6b2b73a32b960711b60648201526084016106d8565b60606105896001600160a01b03831660145b60606000611f95836002612c20565b611fa0906002612c37565b67ffffffffffffffff811115611fb857611fb8612787565b6040519080825280601f01601f191660200182016040528015611fe2576020820181803683370190505b5090507f30000000000000000000000000000000000000000000000000000000000000008160008151811061201957612019612c4a565b60200101906001600160f81b031916908160001a9053507f78000000000000000000000000000000000000000000000000000000000000008160018151811061206457612064612c4a565b60200101906001600160f81b031916908160001a9053506000612088846002612c20565b612093906001612c37565b90505b6001811115612118577f303132333435363738396162636465660000000000000000000000000000000085600f16601081106120d4576120d4612c4a565b1a60f81b8282815181106120ea576120ea612c4a565b60200101906001600160f81b031916908160001a90535060049490941c9361211181612c60565b9050612096565b508315611eef5760405162461bcd60e51b815260206004820181905260248201527f537472696e67733a20686578206c656e67746820696e73756666696369656e7460448201526064016106d8565b61217081611bc2565b6040516001600160a01b038216907fbc7cd75a20ee27fd9adebab32041f755214dbc6bffa90cc0225b39da2e5c2d3b90600090a250565b60606001600160a01b0383163b6122265760405162461bcd60e51b815260206004820152602660248201527f416464726573733a2064656c65676174652063616c6c20746f206e6f6e2d636f60448201527f6e7472616374000000000000000000000000000000000000000000000000000060648201526084016106d8565b600080846001600160a01b0316846040516122419190612c77565b600060405180830381855af49150503d806000811461227c576040519150601f19603f3d011682016040523d82523d6000602084013e612281565b606091505b50915091506122a98282604051806060016040528060278152602001612c94602791396124ea565b95945050505050565b606060006122bf83612503565b600101905060008167ffffffffffffffff8111156122df576122df612787565b6040519080825280601f01601f191660200182016040528015612309576020820181803683370190505b5090508181016020015b600019017f3031323334353637383961626364656600000000000000000000000000000000600a86061a8153600a850494508461231357509392505050565b6001600160a01b0382166123a85760405162461bcd60e51b815260206004820181905260248201527f4552433732313a206d696e7420746f20746865207a65726f206164647265737360448201526064016106d8565b6000818152606760205260409020546001600160a01b03161561240d5760405162461bcd60e51b815260206004820152601c60248201527f4552433732313a20746f6b656e20616c7265616479206d696e7465640000000060448201526064016106d8565b6000818152606760205260409020546001600160a01b0316156124725760405162461bcd60e51b815260206004820152601c60248201527f4552433732313a20746f6b656e20616c7265616479206d696e7465640000000060448201526064016106d8565b6001600160a01b0382166000818152606860209081526040808320805460010190558483526067909152808220805473ffffffffffffffffffffffffffffffffffffffff19168417905551839291907fddf252ad1be2c89b69c2b068fc378daa952ba7f163c4a11628f55a4df523b3ef908290a45050565b606083156124f9575081611eef565b611eef83836125e5565b6000807a184f03e93ff9f4daa797ed6e38ed64bf6a1f010000000000000000831061254c577a184f03e93ff9f4daa797ed6e38ed64bf6a1f010000000000000000830492506040015b6d04ee2d6d415b85acef81000000008310612578576d04ee2d6d415b85acef8100000000830492506020015b662386f26fc10000831061259657662386f26fc10000830492506010015b6305f5e10083106125ae576305f5e100830492506008015b61271083106125c257612710830492506004015b606483106125d4576064830492506002015b600a83106105895760010192915050565b8151156125f55781518083602001fd5b8060405162461bcd60e51b81526004016106d89190612692565b6001600160e01b031981168114610a1e57600080fd5b60006020828403121561263757600080fd5b8135611eef8161260f565b60005b8381101561265d578181015183820152602001612645565b50506000910152565b6000815180845261267e816020860160208601612642565b601f01601f19169290920160200192915050565b602081526000611eef6020830184612666565b6000602082840312156126b757600080fd5b5035919050565b80356001600160a01b03811681146126d557600080fd5b919050565b600080604083850312156126ed57600080fd5b6126f6836126be565b946020939093013593505050565b60008060006060848603121561271957600080fd5b612722846126be565b9250612730602085016126be565b9150604084013590509250925092565b6000806040838503121561275357600080fd5b82359150612763602084016126be565b90509250929050565b60006020828403121561277e57600080fd5b611eef826126be565b634e487b7160e01b600052604160045260246000fd5b600082601f8301126127ae57600080fd5b813567ffffffffffffffff808211156127c9576127c9612787565b604051601f8301601f19908116603f011681019082821181831017156127f1576127f1612787565b8160405283815286602085880101111561280a57600080fd5b836020870160208301376000602085830101528094505050505092915050565b6000806040838503121561283d57600080fd5b823567ffffffffffffffff8082111561285557600080fd5b6128618683870161279d565b9350602085013591508082111561287757600080fd5b506128848582860161279d565b9150509250929050565b600080604083850312156128a157600080fd5b6128aa836126be565b9150602083013567ffffffffffffffff8111156128c657600080fd5b6128848582860161279d565b600080604083850312156128e557600080fd5b6128ee836126be565b91506020830135801515811461290357600080fd5b809150509250929050565b6000806000806080858703121561292457600080fd5b61292d856126be565b935061293b602086016126be565b925060408501359150606085013567ffffffffffffffff81111561295e57600080fd5b61296a8782880161279d565b91505092959194509250565b6000806040838503121561298957600080fd5b612992836126be565b9150612763602084016126be565b600181811c908216806129b457607f821691505b6020821081036129d457634e487b7160e01b600052602260045260246000fd5b50919050565b6000602082840312156129ec57600080fd5b5051919050565b60008351612a05818460208801612642565b835190830190612a19818360208801612642565b01949350505050565b601f82111561077957600081815260208120601f850160051c81016020861015612a495750805b601f850160051c820191505b81811015612a6857828155600101612a55565b505050505050565b815167ffffffffffffffff811115612a8a57612a8a612787565b612a9e81612a9884546129a0565b84612a22565b602080601f831160018114612ad35760008415612abb5750858301515b600019600386901b1c1916600185901b178555612a68565b600085815260208120601f198616915b82811015612b0257888601518255948401946001909101908401612ae3565b5085821015612b205787850151600019600388901b60f8161c191681555b5050505050600190811b01905550565b7f416363657373436f6e74726f6c3a206163636f756e7420000000000000000000815260008351612b68816017850160208801612642565b7f206973206d697373696e6720726f6c65200000000000000000000000000000006017918401918201528351612ba5816028840160208801612642565b01602801949350505050565b60006001600160a01b03808716835280861660208401525083604083015260806060830152612be36080830184612666565b9695505050505050565b600060208284031215612bff57600080fd5b8151611eef8161260f565b634e487b7160e01b600052601160045260246000fd5b808202811582820484141761058957610589612c0a565b8082018082111561058957610589612c0a565b634e487b7160e01b600052603260045260246000fd5b600081612c6f57612c6f612c0a565b506000190190565b60008251612c89818460208701612642565b919091019291505056fe416464726573733a206c6f772d6c6576656c2064656c65676174652063616c6c206661696c6564a2646970667358221220f32d074d2eb82d7247a5e9101aa7d91aab00b341ea54fd601d5d458e5f1cdb3f64736f6c63430008110033",
  "linkReferences": {},
  "deployedLinkReferences": {}
}